:100000000C9434000C943E000C943E000C943E0082
:100010000C943E000C943E000C943E000C943E0068
:100020000C943E000C943E000C943E000C943E0058
:100030000C943E000C943E000C943E000C943E0048
:100040000C943E000C943E000C943E000C943E0038
:100050000C943E000C943E000C943E000C943E0028
:100060000C943E000C943E0011241FBECFEFD8E04C
:10007000DEBFCDBF0E9457000C946D000C940000B1
:1000800089B182FB882780F94B9982604C99846002
:100090004D99886008959BB1937C9BB92BB18F706B
:1000A00034E0839FC0011124822B8BB908958AB15B
:1000B000837C8AB90E94400099EF980F923008F033
:1000C0008FE00E944B002FEF81EE94E021508040A2
:0E00D0009040E1F700C00000EDCFF894FFCFA4
:00000001FF

