:100000000C9434000C943E000C943E000C943E0082
:100010000C943E000C943E000C943E000C943E0068
:100020000C943E000C943E000C943E000C943E0058
:100030000C943E000C943E000C943E000C943E0048
:100040000C943E000C943E000C943E000C943E0038
:100050000C943E000C943E000C943E000C943E0028
:100060000C943E000C943E0011241FBECFEFD8E04C
:10007000DEBFCDBF0E9454000C9477000C940000AA
:1000800039B199B129B189B132FB332730F996954D
:1000900096959270932B2695269526952470922BF3
:1000A00082958870892B08958AB1837C8AB9259AB4
:1000B00089B129B189B199B122FB222720F986950E
:1000C000869586958270822B92959470892B8750A5
:1000D000823010F42D9A01C02D982FEF80E792E026
:1000E000215080409040E1F700C00000E1CFF8943B
:0200F000FFCF40
:00000001FF
