:100000000C9434000C943E000C943E000C943E0082
:100010000C943E000C943E000C943E000C943E0068
:100020000C943E000C943E000C943E000C943E0058
:100030000C943E000C943E000C943E000C943E0048
:100040000C943E000C943E000C943E000C943E0038
:100050000C943E000C943E000C943E000C943E0028
:100060000C943E000C943E0011241FBECFEFD8E04C
:10007000DEBFCDBF0E9475000C9490000C94000070
:1000800089B182FB882780F94B9982604C99846002
:100090004D998860089526E030E090E0E1E0F0E0DE
:1000A000A90146505109BC0102C0759567954A9552
:1000B000E2F760FF09C06BB1AF01022E01C0440F2F
:1000C0000A94EAF7462B0AC05BB1BF01022E01C0B9
:1000D000660F0A94EAF7462F409545234BB92F5FE8
:1000E0003F4F2A303105E1F608958AB1837C8AB901
:1000F0008AB1806F8AB90E94400099EF980F9230C0
:1001000018F08B3009F08FE00E944B002FEF81EE4A
:1001100094E0215080409040E1F700C00000EBCF18
:04012000F894FFCF81
:00000001FF
