:100000000C9434000C943E000C943E000C943E0082
:100010000C943E000C943E000C943E000C943E0068
:100020000C943E000C943E000C943E000C943E0058
:100030000C943E000C943E000C943E000C943E0048
:100040000C943E000C943E000C943E000C943E0038
:100050000C943E000C943E000C943E000C943E0028
:100060000C943E000C943E0011241FBECFEFD8E04C
:10007000DEBFCDBF0E944B000C9464000C940000C6
:1000800089B182FB882780F94B9982604C99846002
:100090004D99886008958AB1837C8AB9259A0E9417
:1000A000400099EF980F923010F08B3011F42D9A98
:1000B00001C02D982FEF80E792E0215080409040C2
:0C00C000E1F700C00000EBCFF894FFCF88
:00000001FF
