:100000000C9434000C9449000C9449000C94490061
:100010000C9449000C9449000C9449000C9449003C
:100020000C9449000C9449000C9449000C9449002C
:100030000C9449000C9449000C9449000C9449001C
:100040000C9449000C9449000C9449000C9449000C
:100050000C9449000C9449000C9449000C944900FC
:100060000C9449000C94490011241FBECFEFD8E036
:10007000DEBFCDBF11E0A0E0B1E0E6E8F1E002C0F4
:1000800005900D92AA30B107D9F70E9487000C9411
:10009000C1000C94000089B182FB882780F94B993C
:1000A00082604C9984604D9988600895E82FF0E053
:1000B000E050FF4F2081E3E0F1E080E090E030E0AD
:1000C000A1E0B0E0A901082E02C0559547950A9419
:1000D000E2F740FF0AC06BB1AD01008002C0440FDF
:1000E000551F0A94E2F7462B0BC05BB1BD0100809F
:1000F00002C0660F771F0A94E2F7462F409545230A
:100100004BB90196319687309105E1F608958AB191
:10011000837C8AB98AB18C6F8AB9209AC1E0D0E019
:100120000E944B00873011F480E003C0883021F436
:1001300081E00E9456001BC08B3011F482E0F9CFA1
:10014000E3E0F1E08191883058F49BB19E0101C059
:10015000220F8A95EAF7822F809589238BB903C0F5
:10016000883009F4289821E0EA30F20759F78FEF38
:1001700090E722E0815090402040E1F700C000006D
:06018000CFCFF894FFCF81
:0A018600077F7C070605040302084A
:00000001FF
