:100000000C945D000C9485000C9485000C94850084
:100010000C9485000C9485000C9485000C9485004C
:100020000C9485000C9485000C9485000C9485003C
:100030000C9485000C9485000C9485000C9485002C
:100040000C94B0020C9485000C9420030C94FA02DA
:100050000C9485000C9485000C9485000C9485000C
:100060000C9485000C9485000000000024002700FB
:100070002A0000000000250028002B0004040404CE
:100080000404040402020202020203030303030342
:10009000010204081020408001020408102001021F
:1000A00004081020000000080002010000030407FB
:1000B0000000000000000000580411241FBECFEF14
:1000C000D8E0DEBFCDBF11E0A0E0B1E0EEE5F9E0A1
:1000D00002C005900D92A832B107D9F721E0A8E23D
:1000E000B1E001C01D92AE3CB207E1F710E0CDE5F2
:1000F000D0E004C02197FE010E94A704CC35D107AF
:10010000C9F70E9452030C94AD040C940000E9EA74
:10011000F0E02491E5E9F0E09491E1E8F0E0E49189
:10012000EE23C9F0222339F0233001F1A8F4213065
:1001300019F1223029F1F0E0EE0FFF1FEE58FF4FCA
:10014000A591B4912FB7F894EC91811126C09095A8
:100150009E239C932FBF08952730A9F02830C9F023
:10016000243049F7209180002F7D03C0209180002A
:100170002F7720938000DFCF24B52F7724BDDBCFEE
:1001800024B52F7DFBCF2091B0002F772093B000B6
:10019000D2CF2091B0002F7DF9CF9E2BDACF3FB781
:1001A000F89480912D0190912E01A0912F01B09192
:1001B000300126B5A89B05C02F3F19F00196A11D5F
:1001C000B11D3FBFBA2FA92F982F8827BC01CD01A1
:1001D000620F711D811D911D42E0660F771F881F00
:1001E000991F4A95D1F708958F929F92AF92BF922F
:1001F000CF92DF92EF92FF924B015C010E94CF0001
:100200006B017C010E94CF006C197D098E099F094A
:10021000683E734081059105A8F321E0821A910898
:10022000A108B10888EEC80E83E0D81EE11CF11CBD
:1002300081149104A104B10429F7FF90EF90DF909D
:10024000CF90BF90AF909F908F900895AF92BF9244
:10025000CF92DF92EF92FF920F931F93CF93DF9392
:100260006C017B018B01040F151FEB015E01AE18C1
:10027000BF08C017D10759F06991D601ED91FC91E3
:100280000190F081E02DC6010995892B79F7C50110
:10029000DF91CF911F910F91FF90EF90DF90CF9062
:1002A000BF90AF900895FC01538D448D252F30E011
:1002B000842F90E0821B930B541710F0CF96089573
:1002C00001970895FC01918D828D981761F0A28DA0
:1002D000AE0FBF2FB11D5D968C91928D9F5F9F7366
:1002E000928F90E008958FEF9FEF0895FC01918D1C
:1002F000828D981731F0828DE80FF11D858D90E089
:1003000008958FEF9FEF0895FC01918D228D892F25
:1003100090E0805C9F4F821B91098F73992708950D
:1003200081E391E00E94840121E0892B09F420E01F
:10033000822F089580E090E0892B29F00E9490019F
:1003400081110C9400000895FC01A48DA80FB92F11
:10035000B11DA35ABF4F2C91848D90E001968F73ED
:100360009927848FA689B7892C93A089B1898C910C
:10037000837080648C93938D848D981306C002885B
:10038000F389E02D80818F7D80830895EF92FF9225
:100390000F931F93CF93DF93EC0181E0888F9B8DA8
:1003A0008C8D98131AC0E889F989808185FF15C062
:1003B0009FB7F894EE89FF896083E889F989808185
:1003C0008370806480839FBF81E090E0DF91CF9154
:1003D0001F910F91FF90EF900895F62E0B8D10E076
:1003E0000F5F1F4F0F731127E02E8C8D8E110CC0E5
:1003F0000FB607FCFACFE889F989808185FFF5CF30
:10040000CE010E94A401F1CFEB8DEC0FFD2FF11D69
:10041000E35AFF4FF0829FB7F8940B8FEA89FB896C
:1004200080818062CFCFCF93DF93EC01888D8823CA
:10043000B9F0AA89BB89E889F9898C9185FD03C047
:10044000808186FD0DC00FB607FCF7CF8C9185FF2C
:10045000F2CF808185FFEDCFCE010E94A401E9CFCC
:10046000DF91CF910895FC0101900020E9F73197C9
:10047000AF01481B590BBC0181E391E00C942601AC
:100480008F929F92AF92BF920F931F93CF93DF9360
:10049000CDB7DEB7A1970FB6F894DEBF0FBECDBFC4
:1004A00019A2423008F44AE08E010F5D1F4F842EDE
:1004B000912CB12CA12CA50194010E948504E62F5A
:1004C000B901CA01EA30F4F4E05DD801EE938D0180
:1004D000232B242B252B79F790E080E0109719F03F
:1004E000CD010E943302A1960FB6F894DEBF0FBE75
:1004F000CDBFDF91CF911F910F91BF90AF909F9093
:100500008F900895E95CE1CFCF92DF92EF92FF9256
:10051000CF93DF9397FF1BC06B017C016DE281E3FA
:1005200091E00E94C601EC0166277727CB016C1988
:100530007D098E099F094AE00E9440028C0F9D1F91
:10054000DF91CF91FF90EF90DF90CF9008954AE038
:10055000DF91CF91FF90EF90DF90CF900C9440020D
:100560001F920F920FB60F9211242F933F938F93E8
:100570009F93AF93BF938091290190912A01A091FD
:100580002B01B0912C013091280123E0230F2D374E
:1005900058F50196A11DB11D2093280180932901D2
:1005A00090932A01A0932B01B0932C0180912D01EF
:1005B00090912E01A0912F01B09130010196A11DC3
:1005C000B11D80932D0190932E01A0932F01B09324
:1005D0003001BF91AF919F918F913F912F910F90DB
:1005E0000FBE0F901F90189526E8230F0296A11DAD
:1005F000B11DD2CF1F920F920FB60F9211242F93DD
:100600003F934F935F936F937F938F939F93AF939A
:10061000BF93EF93FF9381E391E00E94A401FF91C8
:10062000EF91BF91AF919F918F917F916F915F916A
:100630004F913F912F910F900FBE0F901F901895E3
:100640001F920F920FB60F9211242F938F939F93A7
:10065000EF93FF93E0914101F09142018081E0919D
:100660004701F091480182FD1BC0908180914A01B1
:100670008F5F8F7320914B01821741F0E0914A0107
:10068000F0E0EF5CFE4F958F80934A01FF91EF9170
:100690009F918F912F910F900FBE0F901F901895E3
:1006A0008081F4CF789484B5826084BD84B5816004
:1006B00084BD85B5826085BD85B5816085BD80912D
:1006C0006E00816080936E001092810080918100A5
:1006D000826080938100809181008160809381009D
:1006E000809180008160809380008091B10084605F
:1006F0008093B1008091B00081608093B0008091C0
:100700007A00846080937A0080917A00826080937E
:100710007A0080917A00816080937A0080917A00DB
:10072000806880937A001092C100E5E9F0E024919E
:10073000E1E8F0E08491882399F090E0880F991F18
:10074000FC01E859FF4FA591B491FC01EE58FF4F11
:10075000859194918FB7F894EC91E22BEC938FBF35
:1007600080E00E948700E0914101F091420182E027
:100770008083E0913D01F0913E011082E0913F01C4
:10078000F091400180E1808310924901E0914501A0
:10079000F091460186E08083E0914301F0914401AD
:1007A000808180618083E0914301F09144018081E8
:1007B00088608083E0914301F091440180818068EA
:1007C0008083E0914301F091440180818F7D80839B
:1007D000C0E0D0E0C12CD12C76010C2D01709C2DF5
:1007E000957029F0002309F460C0C1FC5EC011E0DF
:1007F00081E00E94870082E191E00E9433024AE09A
:10080000C701B6010E94400289E191E00E943302D3
:10081000B6017595679575956795072E000C880B41
:10082000990B0E948402B6017595679561707727D0
:10083000072E000C880B990B0E948402602F70E039
:1008400090E080E00E9484028CE191E00E943302FB
:10085000612F70E090E080E00E94840284E291E0E9
:100860000E94330268EE73E080E090E00E94F400A2
:100870008FEFC81AD80AE80AF80A88E0C816D10427
:10088000E104F10409F0A9CF60ED77E080E090E0A9
:100890000E94F400209709F49DCF0E9490018823C4
:1008A00009F498CF0E94000095CF10E080E0A1CF1E
:1008B000E1E3F1E01382128288EE93E0A0E0B0E081
:1008C00084839583A683B78384E091E091838083BA
:1008D00085EC90E09587848784EC90E09787868705
:1008E00080EC90E0918B808B81EC90E0938B828BFD
:1008F00082EC90E0958B848B86EC90E0978B868BD6
:10090000118E128E138E148E0895A1E21A2EAA1B38
:10091000BB1BFD010DC0AA1FBB1FEE1FFF1FA217AF
:10092000B307E407F50720F0A21BB30BE40BF50BAC
:10093000661F771F881F991F1A9469F76095709535
:10094000809590959B01AC01BD01CF010895EE0FFC
:0E095000FF1F0590F491E02D0994F894FFCF5D
:10095E0000000000C601260153011302840162014A
:10096E0076017374617465200020280029202D3EC5
:08097E0020663D000D0A000097
:00000001FF
